S014000068617A695F66656C616461742E7372656334
S113000045C0000060C000005EC000005CC000008D
S11300105AC0000058C0000056C0000054C0000080
S113002052C0000050C000004EC000004CC0000090
S11300304AC0000048C0000046C0000044C00000A0
S113004072C0000040C000003EC000003CC0000080
S11300503AC0000038C0000036C0000034C00000C0
S113006032C0000030C000002EC000002CC00000D0
S11300702AC0000028C0000026C0000024C00000E0
S113008022C0000020C000001EC0000011241FBEBA
S1130090CFEFD0E1DEBFCDBF11E0A0E0B1E0EEE7ED
S11300A0F1E000E00BBF02C007900D92A030B10751
S11300B0D9F721E0A0E0B1E001C01D92A130B20760
S11300C0E1F713D05AC09CCF8FEF8ABB80EF87BB78
S11300D081BB089581E087BF7894089583B78560D4
S11300E083BF83E882BFF6CF0895EEDFF7DF2FEFFB
S11300F085EA9EE0215080409040E1F700C0000076
S113010080910001893019F410920001F0CF8F5FC3
S113011080930001ECCF20E1829FC0011124862B43
S113012080688BBB08951F920F920FB60F92112413
S11301300BB60F922F933F934F935F936F937F93DD
S11301408F939F93AF93BF93EF93FF9360910001BD
S113015080E0E1DFFF91EF91BF91AF919F918F918B
S11301607F916F915F914F913F912F910F900BBEB3
S11101700F900FBE0F901F901895F894FFCFBC
S9030000FC
