:1000000045C0000053C0000051C000004FC00000B8
:100010004DC000004BC0000049C0000047C00000B8
:1000200045C0000043C0000041C000003FC00000C8
:100030003DC000003BC0000039C0000037C00000D8
:1000400035C0000033C0000031C000002FC00000E8
:100050002DC000002BC0000029C0000027C00000F8
:1000600025C0000023C000004BC000001FC00000DE
:100070001DC000001BC0000019C0000017C0000018
:1000800015C0000013C0000011C0000011241FBEE5
:10009000CFEFD0E1DEBFCDBF21E0A0E0B1E001C0F5
:1000A0001D92A330B207E1F726D066C0A9CFEDE7D5
:1000B000F0E080818061808378940895EBE8F0E03F
:1000C00080818083EAE8F0E080818C6080831092F8
:1000D0008C008AE78093870081E180938600E7CFD8
:1000E000089580EF87BB81BB0895982F9295907FEC
:1000F00098BB82BB0895F5DFE1DF80EFF6DFFFCF2D
:100100001F920F920FB60F9211240BB60F922F93DE
:100110003F934F935F936F937F938F939F93AF938F
:10012000BF93EF93FF93809100019091010101969D
:100130009093010180930001019759F410920101FD
:1001400010920001909102018FE0892780930201B3
:10015000CCDFFF91EF91BF91AF919F918F917F91F4
:100160006F915F914F913F912F910F900BBE0F9028
:0C0170000FBE0F901F901895F894FFCF61
:00000001FF
