:1000000045C0000060C000005EC000005CC0000091
:100010005AC0000058C0000056C0000054C0000084
:1000200052C0000050C000004EC000004CC0000094
:100030004AC0000048C0000046C0000044C00000A4
:1000400042C0000040C000003EC000003CC00000B4
:100050003AC0000038C0000036C0000034C00000C4
:1000600032C0000030C000002EC000002CC00000D4
:100070002AC0000028C0000026C0000024C00000E4
:1000800022C0000020C000001EC0000011241FBEBE
:10009000CFEFD0E1DEBFCDBF11E0A0E0B1E0E6E3FD
:1000A000F3E000E00BBF02C007900D92A430B1074F
:1000B000D9F721E0A4E0B1E001C01D92A630B2075B
:1000C000E1F7EDD036C19CCFE2E6F0E08081877F9A
:1000D00080838FE39FE10197F1F700C000008081EA
:1000E000886080838FE39FE10197F1F700C00000F3
:1000F0008081877F80838FE39FE10197F1F700C0C4
:1001000000000895CF93DF93C82FE2E6F0E08081EE
:100110008B7F808380818D7F8083D1B18C2F807F86
:1001200083B9D2DF20E1C29FC001112483B9CCDFA3
:10013000D3B9DF91CF91089582B1806F82B9E1E6A2
:10014000F0E080818860808380818260808380810C
:100150008460808383B1806283B9B6DFB5DFB4DFAA
:1001600088E2D0DF88E2CEDF88E2CCDF8CE0CADF35
:1001700081E0C8CF0895CF93DF93C82FE2E6F0E087
:1001800080818B7F8083808182608083D1B18C2F3E
:10019000807F83B999DF20E1C29FC001112483B918
:1001A00093DFD3B9DF91CF910895CF93DF93EC0123
:1001B00002C0E1DF219688818111FBCFDF91CF91D1
:1001C0000895CF93DF9300D000D0CDB7DEB7603174
:1001D00008F06FE090E8998390EC9A8390E99B8314
:1001E00090ED9C83E1E0F0E0EC0FFD1FE80FF11DC6
:1001F0008081860F87DF0F900F900F900F90DF9117
:10020000CF910895809105018B3359F4E4E0F1E03A
:10021000118280818F5F80838B3331F410920401CF
:1002200008958F5F8093050108950F931F93CF93D7
:10023000DF9300D01F92CDB7DEB764E080E0C1DF6E
:10024000809104018A3018F480E091E0AEDF04E090
:1002500011E0F80180814AE050E0BE016F5F7F4FFE
:1002600090E02AD0A2DF82E091E09FDFF801818157
:100270008A3018F480E091E098DF809105014AE02F
:1002800050E0BE016F5F7F4F90E016D08EDF0F9081
:100290000F900F90DF91CF911F910F9108954CDF38
:1002A000B1DFC3DF2FEF89E698E121508040904015
:1002B000E1F700C00000F4CF4532510518F4423098
:1002C00008F004C0FB011082CB010895BB274A301F
:1002D00031F4992322F4BDE2909581959F4F01C09E
:1002E000BB27FB015527AA27880F991FAA1FA41710
:1002F00010F0A41B83955051B9F7A05DAA3308F004
:10030000A95DA193009779F7B111B1931192CB0137
:1003100000C0DC01FC01672F71917723E1F7329770
:1003200004C07C916D9370836291AE17BF07C8F3D0
:060330000895F894FFCFD0
:0403360030003A0059
:00000001FF
