:1000000045C0000053C0000051C000004FC00000B8
:100010004DC000004BC0000049C0000047C00000B8
:1000200045C0000043C0000041C000003FC00000C8
:100030003DC000003BC000005BC0000037C00000B6
:1000400035C0000033C0000031C000002FC00000E8
:100050002DC000002BC0000029C0000027C00000F8
:1000600025C0000023C0000021C000001FC0000008
:100070001DC000001BC0000019C0000017C0000018
:1000800015C0000013C0000011C0000011241FBEE5
:10009000CFEFD0E1DEBFCDBF21E0A0E0B1E001C0F5
:1000A0001D92A330B207E1F71ED062C0A9CF87B777
:1000B000846087BF789408958FB58FBD8EB58460B6
:1000C0008EBD10927A008BE08DBD8CED8CBDEFCF94
:1000D000089580EF87BB81BB0895982F9295907FFC
:1000E00098BB82BB0895F5DFE7DF80EFF6DFFFCF37
:1000F0001F920F920FB60F9211240BB60F922F93EF
:100100003F934F935F936F937F938F939F93AF939F
:10011000BF93EF93FF938BE08DBD8CED8CBD8091F1
:1001200000019091010101969093010180930001DB
:10013000019759F41092010110920001909102016F
:100140008FE0892780930201C8DFFF91EF91BF9173
:10015000AF919F918F917F916F915F914F913F915F
:100160002F910F900BBE0F900FBE0F901F90189500
:04017000F894FFCF31
:00000001FF
